{
  "_format": "hh-sol-artifact-1",
  "contractName": "CertificateVerification",
  "sourceName": "contracts/CertificateVerification.sol",
  "abi": [
    {
      "inputs": [],
      "stateMutability": "nonpayable",
      "type": "constructor"
    },
    {
      "anonymous": false,
      "inputs": [
        {
          "indexed": false,
          "internalType": "string",
          "name": "hash",
          "type": "string"
        },
        {
          "indexed": false,
          "internalType": "address",
          "name": "addedBy",
          "type": "address"
        }
      ],
      "name": "CertificateAdded",
      "type": "event"
    },
    {
      "inputs": [
        {
          "internalType": "string",
          "name": "hash",
          "type": "string"
        }
      ],
      "name": "addCertificate",
      "outputs": [],
      "stateMutability": "nonpayable",
      "type": "function"
    },
    {
      "inputs": [],
      "name": "owner",
      "outputs": [
        {
          "internalType": "address",
          "name": "",
          "type": "address"
        }
      ],
      "stateMutability": "view",
      "type": "function"
    },
    {
      "inputs": [
        {
          "internalType": "string",
          "name": "hash",
          "type": "string"
        }
      ],
      "name": "verifyCertificate",
      "outputs": [
        {
          "internalType": "bool",
          "name": "",
          "type": "bool"
        }
      ],
      "stateMutability": "view",
      "type": "function"
    }
  ],
  "bytecode": "0x608060405234801561001057600080fd5b50336000806101000a81548173ffffffffffffffffffffffffffffffffffffffff021916908373ffffffffffffffffffffffffffffffffffffffff1602179055506105e2806100606000396000f3fe608060405234801561001057600080fd5b50600436106100415760003560e01c80630a99e4f8146100465780638b23d875146100625780638da5cb5b14610092575b600080fd5b610060600480360381019061005b9190610363565b6100b0565b005b61007c60048036038101906100779190610363565b6101b0565b60405161008991906103c7565b60405180910390f35b61009a6101e5565b6040516100a79190610423565b60405180910390f35b60008054906101000a900473ffffffffffffffffffffffffffffffffffffffff1673ffffffffffffffffffffffffffffffffffffffff163373ffffffffffffffffffffffffffffffffffffffff161461013e576040517f08c379a00000000000000000000000000000000000000000000000000000000081526004016101359061049b565b60405180910390fd5b6001808260405161014f919061052c565b908152602001604051809103902060006101000a81548160ff0219169083151502179055507f6dae487072a0ae0f2473b3117e73cde4322a2d1201b97a8aa6e0c73e6adf6dfc81336040516101a592919061057c565b60405180910390a150565b60006001826040516101c2919061052c565b908152602001604051809103902060009054906101000a900460ff169050919050565b60008054906101000a900473ffffffffffffffffffffffffffffffffffffffff1681565b6000604051905090565b600080fd5b600080fd5b600080fd5b600080fd5b6000601f19601f8301169050919050565b7f4e487b7100000000000000000000000000000000000000000000000000000000600052604160045260246000fd5b61027082610227565b810181811067ffffffffffffffff8211171561028f5761028e610238565b5b80604052505050565b60006102a2610209565b90506102ae8282610267565b919050565b600067ffffffffffffffff8211156102ce576102cd610238565b5b6102d782610227565b9050602081019050919050565b82818337600083830152505050565b6000610306610301846102b3565b610298565b90508281526020810184848401111561032257610321610222565b5b61032d8482856102e4565b509392505050565b600082601f83011261034a5761034961021d565b5b813561035a8482602086016102f3565b91505092915050565b60006020828403121561037957610378610213565b5b600082013567ffffffffffffffff81111561039757610396610218565b5b6103a384828501610335565b91505092915050565b60008115159050919050565b6103c1816103ac565b82525050565b60006020820190506103dc60008301846103b8565b92915050565b600073ffffffffffffffffffffffffffffffffffffffff82169050919050565b600061040d826103e2565b9050919050565b61041d81610402565b82525050565b60006020820190506104386000830184610414565b92915050565b600082825260208201905092915050565b7f4e6f7420617574686f72697a6564000000000000000000000000000000000000600082015250565b6000610485600e8361043e565b91506104908261044f565b602082019050919050565b600060208201905081810360008301526104b481610478565b9050919050565b600081519050919050565b600081905092915050565b60005b838110156104ef5780820151818401526020810190506104d4565b60008484015250505050565b6000610506826104bb565b61051081856104c6565b93506105208185602086016104d1565b80840191505092915050565b600061053882846104fb565b915081905092915050565b600061054e826104bb565b610558818561043e565b93506105688185602086016104d1565b61057181610227565b840191505092915050565b600060408201905081810360008301526105968185610543565b90506105a56020830184610414565b939250505056fea26469706673582212205bf44b702e9ceb52867e9a2bdd3423ab3e623084065c8dfaa68d18ec07214c0a64736f6c63430008130033",
  "linkReferences": {},
  "deployedLinkReferences": {}
}